S0100000426F622D636F64652E7372656339
S1130000F2C0000010C100000EC1000029C40000AD
S113001047C400000BC5000047C5000004C1000030
S113002002C100005DC40000FEC00000FCC000006E
S1130030FAC00000F8C00000F6C00000F4C00000E0
S1130040F2C00000F0C00000EEC00000ECC00000F0
S1130050EAC00000E8C00000E6C00000E4C0000000
S1130060E2C00000E0C00000DEC00000DCC0000010
S1130070DAC00000D8C00000D6C00000D4C0000020
S1130080D2C00000D0C00000CEC00000CCC0000030
S1130090CAC00000C8C00000C6C00000C4C0000040
S11300A0C2C00000C0C00000BEC00000BCC0000050
S11300B0BAC00000B8C00000B6C00000B4C0000060
S11300C0B2C00000B0C00000AEC00000ACC0000070
S11300D0AAC00000A8C00000A6C00000A4C0000080
S11300E0A2C000006E616E00696E660000407A1066
S11300F0F35A00A0724E18090010A5D4E80000E8D5
S11301007648170000E40B54020000CA9A3B000032
S113011000E1F505000080969800000040420F00C1
S11301200000A08601000000102700000000E80382
S1130130000000006400000000000A00000000004D
S11301400100000000002C76D888DC674F0823DF0C
S1130150C1DFAE59E1B1B796E5E3E453C63AE651DF
S1130160997696E8E6C28426EB898C9B62ED407C06
S11301706FFCEFBC9C9F40F2BAA56FA5F490055AA2
S11301802AF75C936B6CF9676DC11BFCE0E40D47C7
S1130190FEF520E6B500D0ED902E030094357705EA
S11301A00080841E080000204E0A000000C80C33A2
S11301B03333330F986E12831141EF8D2114893B31
S11301C0E65516CFFEE6DB18D1844B381BF77C1DB1
S11301D0901DA4BBE424203284725E228100C9F104
S11301E024ECA1E53D2711241FBECFEFD1E2DEBFF1
S11301F0CDBF00E00CBF12E0A0E0B2E0E0E8F9E11E
S113020000E00BBF02C007900D92AA37B107D9F7DF
S113021022E0AAE7B2E001C01D92AF3CB207E1F7C9
S1130220FED10C94BE0CECCE81E181B95298539866
S1130230E9E6F0E0808180638083EA9A8081806CC3
S11302408083EB9A6C98749AEAE6F0E0808181608E
S11302508083EC9A6D98759A808184608083ED9A8E
S113026082E080930A012098289A2198299A22985A
S11302702A9A23982B9A24982C9A25982D9AE8E662
S1130280F0E0808181608083EBE6F0E080818F6321
S1130290808378948EE142C40895CF92DF92EF92E6
S11302A0FF92209108023091090240910A02509174
S11302B00B02ADD56B017C012BED3FE049EC50E422
S11302C060910402709105028091060290910702E8
S11302D09ED59B01AC01C701B601B4D420E030E047
S11302E044EB52E494D516D5CB01FF90EF90DF9008
S11302F0CF900895EBE6F0E090819E7F908390810B
S11303009D7F908390819B7F90839081977F908342
S113031090819F7E908390819F7D90838330C1F0F4
S113032028F4813049F0823069F029C08530E1F049
S1130330A8F08630F9F023C0EBE6F0E0808181601C
S113034080831DC0EBE6F0E080818260808317C06B
S1130350EBE6F0E080818460808311C0EBE6F0E09E
S11303608081886080830BC0EBE6F0E0808180614F
S1130370808305C0EBE6F0E0808180628083EBE05F
S1130380F1E080818260808380E58A95F1F7808145
S11303908D7F808308959F92AF92BF92CF92DF9218
S11303A0EF92FF920F931F93CF93DF93982E0F2E0C
S11303B0FFEBEF2EF2E0FF2EF02D09EC12E06701C7
S11303C00F2EF8E2AF2EF2E0BF2EF02D892D92DF32
S11303D083E0981661F1891538F0C1E09C1669F044
S11303E0D2E09D16E1F042C0E5E09E1681F19E1632
S11303F030F1F6E09F1699F139C080919B029091FB
S11304009C02E601888399839F938F93BF92AF9256
S11304100E941D0C0F900F900F900F9027C0809199
S1130420990290919A02F601918380831FC0809172
S1130430970290919802E6019983888317C080916E
S1130440950290919602F601918380830FC080916A
S1130450930290919402E6019983888307C0809166
S1130460910290919202F60191838083F2E0CF0E83
S1130470D11C0C151D0509F0A9CF67EC72E0AFEB98
S1130480B2E016C08081918112962D913C91139710
S11304902817390728F031832083EA019B838A8354
S11304A03296E017F10771F712966A177B0719F075
S11304B0F701AD01E7CFE92DF0E0EE0FFF1FE356A2
S11304C0FD4F8091C3029091C40291838083DF9198
S11304D0CF911F910F91FF90EF90DF90CF90BF903D
S11304E0AF909F900895623071F06330B1F0613045
S11304F0E9F4813029F08230C9F4119A10980895F2
S1130500129A13980895813029F0823079F4109A60
S113051011980895139A12980895813029F0823021
S113052029F4109811980895129813980895CF9368
S1130530DF9310928F0210928E0210928D0210920D
S11305408C02811107C062E082E0CDDF61E081E0CE
S1130550CADF06C061E082E0C6DF62E081E0C3DF9B
S11305602091000230910102409102025091030255
S113057060917C0270917D0280917E0290917F0255
S11305808CDEEC01CC0FDD1F48EB5BE060E070E03B
S113059082E19ED244E55BE060E070E08AE098D2BC
S11305A080918E0290918F028C179D0738F4809170
S11305B08C0290918D028C179D0790F363E081E08B
S11305C092DF63E082E08FDF40E050E060E070E0C3
S11305D08AE07ED240E050E060E070E082E178D2D0
S11305E080917C0290917D02A0917E02B0917F0265
S11305F08093000290930102A0930202B09303023D
S11306008EE292E00E94300C10928F0210928E02C1
S113061010928D0210928C02DF91CF910895F6D240
S113062006D395D201DE10928702109286021092B0
S113063085021092840210928F0210928E02109200
S11306408D0210928C0281E0809390028AE59AE0F8
S1130650909381028093800288E49DE090938302CA
S1130660809382020F2EFCE3EF2EF2E0FF2EF02D9A
S113067001E612E00F2EFBED4F2EFFE05F2EF9ECAA
S11306806F2EF0E47F2EF02D0F2EF2EC8F2EF8EB70
S11306909F2EF2E3AF2EFFE3BF2EF02D10928702C0
S11306A01092860280918602909187020197B1F799
S11306B0109287021092860210927A02109285029A
S11306C01092840210928F0210928E0210928D0268
S11306D010928C02FF92EF920E941D0C0F900F90CB
S11306E080917A02813019F410927A02D7CF8091E6
S11306F0840290918502019729F410928502109248
S11307008402CCCF85E592E00E94300C40918002B7
S11307105091810260E070E082E1DAD162E081E030
S1130720E2DE409182025091830260E070E08AE050
S1130730CFD162E082E0D7DE8FE19EE40197F1F74A
S113074000C00000CFE9D2E0DD24D3948D2D23DE58
S1130750E0919002F0E0EE0FFF1FE356FD4F818120
S11307608F9380818F931F930F930E941D0C899107
S113077099914F970F900F900F900F908737910595
S1130780C0F563E081E0AFDE40E050E060E070E09F
S113079082E19ED163E082E0A6DE40E050E060E0CA
S11307A070E08AE095D19FEF23ED80E391502040E3
S11307B08040E1F700C0000080927C0290927D02AC
S11307C0A0927E02B0927F028EE692E00E94300CEC
S11307D081E0ADDE9FEF23ED80E391502040804027
S11307E0E1F700C0000080917B028F5F80937B0261
S11307F004C0D39494E0D912A9CF80917B028430B1
S113080009F06ECF40927C0250927D0260927E028B
S113081070927F0281E08BDE10927B0240927C0218
S113082050927D0260927E0270927F0281E07FDEB0
S113083010927B0240E050E060E070E082E148D139
S113084063E081E050DE40E050E060E070E08AE088
S11308503FD163E082E047DE81E080937A0240CFBB
S11308601F920F920FB60F9211248F939F93809132
S11308708C0290918D02019690938D0280938C024C
S113088080918802909189020196909389028093C5
S113089088029F918F910F900FBE0F901F90189513
S11308A01F920F920FB60F9211248F939F938091F2
S11308B08E0290918F02019690938F0280938E0204
S11308C080918A0290918B02019690938B0280937F
S11308D08A029F918F910F900FBE0F901F901895D1
S11308E01F920F920FB60F9211240BB60F928F9393
S11308F09F93EF93FF93809190028130A1F4189B12
S113090006C0E1E8F0E08081846080830CC0E4E804
S1130910F0E08081918190939C0280939B021092DD
S1130920810011821082809190028230A1F4199B7F
S113093006C0E1E8F0E08081846080830CC0E4E8D4
S1130940F0E08081918190939A02809399021092B1
S1130950810011821082809190028330A1F41A9B4D
S113096006C0E1E8F0E08081846080830CC0E4E8A4
S1130970F0E0808191819093980280939702109285
S1130980810011821082809190028430A1F41B9B1B
S113099006C0E1E8F0E08081846080830CC0E4E874
S11309A0F0E0808191819093960280939502109259
S11309B0810011821082809190028530A1F41C9BE9
S11309C006C0E1E8F0E08081846080830CC0E4E844
S11309D0F0E080819181909394028093930210922D
S11309E0810011821082809190028630A1F41D9BB7
S11309F006C0E1E8F0E08081846080830CC0E4E814
S1130A00F0E0808191819093920280939102109200
S1130A10810011821082FF91EF919F918F910F902D
S1130A200BBE0F900FBE0F901F9018951F920F9240
S1130A300FB60F9211240BB60F922F933F934F933F
S1130A405F936F937F938F939F93AF93BF93EF9332
S1130A50FF9363E081E047DD63E082E044DD40E052
S1130A6050E060E070E08AE033D040E050E060E0C5
S1130A7070E082E12DD081E090E090938502809334
S1130A808402FF91EF91BF91AF919F918F917F91DC
S1130A906F915F914F913F912F910F900BBE0F90EB
S1130AA00FBE0F901F9018951F920F920FB60F92C2
S1130AB011248F939F9381E090E090938702809319
S1130AC086029F918F910F900FBE0F901F901895E3
S1130AD0FF920F931F93CF93DF93F82E8B01EA01BC
S1130AE06115704110F000E010E0C11580E1D807F5
S1130AF010F0C0E0D0E080E830D08F2D5ED0802FA1
S1130B005CD0812F5AD08C2F58D08D2F56D04CD0FA
S1130B10DF91CF911F910F91FF900895CF93C82F2C
S1130B2080E81BD080E049D080E347D03DD080E806
S1130B3014D08EEF42D08C2F40D036D080E80DD028
S1130B4080E03BD080E239D02FD0CF91089510922D
S1130B50B90088E48093B800089594EA9093BC00A7
S1130B60ECEBF0E090819923ECF79091B900987F39
S1130B70983011F09031A1F48093BB0084E8809305
S1130B80BC00ECEBF0E080818823ECF79091B90095
S1130B90987F983139F081E0903429F480E0089509
S1130BA081E0089580E0089584E98093BC00ECEB33
S1130BB0F0E0808184FDFDCF08958093BB0084E83C
S1130BC08093BC00ECEBF0E080818823ECF79091FB
S1130BD0B900987F81E0983209F480E00895CF93BA
S1130BE0C82F8A3011F48DE0FADFE0ECF0E0808168
S1130BF085FFFDCFC093C600CF910895E0ECF0E0EF
S1130C0080818823ECF78091C60008951092C50076
S1130C1087E68093C400E0ECF0E080818D7F8083E0
S1130C2086E08093C20088E18093C1000895E9ECD6
S1130C30F2E08AE192E0938382838CE092E09183F4
S1130C40808308950CD0A9C0A1D040F098D030F092
S1130C5021F45F3F19F08AC05111D3C08DC0AED0CA
S1130C6098F39923C9F35523B1F3951B550BBB276F
S1130C70AA2762177307840738F09F5F5F4F220F1C
S1130C80331F441FAA1FA9F333D00E2E3AF0E0E815
S1130C9030D091505040E695001CCAF729D0FE2F61
S1130CA027D0660F771F881FBB1F261737074807F3
S1130CB0AB07B0E809F0BB0B802DBF01FF279358A9
S1130CC05F4F2AF09E3F510568F050C09AC05F3FC5
S1130CD0ECF3983EDCF3869577956795B795F79591
S1130CE09F5FC9F7880F911D9695879597F9089589
S1130CF0E1E0660F771F881FBB1F62177307840725
S1130D00BA0720F0621B730B840BBA0BEE1F88F733
S1130D10E09508955BD088F09F5790F0B92F9927FC
S1130D20B751A0F0D1F0660F771F881F991F1AF0F2
S1130D30BA95C9F712C0B13081F062D0B1E008951C
S1130D405FC0672F782F8827B85F39F0B93FCCF39D
S1130D50869577956795B395D9F73EF490958095E8
S1130D60709561957F4F8F4F9F4F089597F99F67B7
S1130D7080E870E060E008959FEF80EC089500241F
S1130D800A941616170618060906089500240A94EC
S1130D9012161306140605060895092E0394000C72
S1130DA011F4882352F0BB0F40F4BF2B11F460FF01
S1130DB004C06F5F7F4F8F4F9F4F089557FD90582A
S1130DC0440F551F59F05F3F71F04795880F97FB0B
S1130DD0991F61F09F3F79F08795089512161306C5
S1130DE01406551FF2CF4695F1DF08C016161706F4
S1130DF01806991FF1CF8695710561050894089529
S1130E00E894BB2766277727CB0197F908950BD081
S1130E10C4CFB5DF28F0BADF18F0952309F0A6CFC8
S1130E20ABCF1124EECFCADFA0F3959FD1F3950F7A
S1130E3050E0551F629FF001729FBB27F00DB11D5A
S1130E40639FAA27F00DB11DAA1F649F6627B00DEA
S1130E50A11D661F829F2227B00DA11D621F739FD3
S1130E60B00DA11D621F839FA00D611D221F749FE1
S1130E703327A00D611D231F849F600D211D822F28
S1130E80762F6A2F11249F5750408AF0E1F088236F
S1130E904AF0EE0FFF1FBB1F661F771F881F91507C
S1130EA05040A9F79E3F510570F060CFAACF5F3F35
S1130EB0ECF3983EDCF3869577956795B795F795AF
S1130EC0E7959F5FC1F7FE2B880F911D9695879537
S1130ED097F908952F923F924F925F926F927F926B
S1130EE08F929F92AF92BF92CF92DF92EF92FF9236
S1130EF00F931F93CF93DF93CDB7DEB760970FB6F1
S1130F00F894DEBF0FBECDBF7C011B016A01FC015A
S1130F1017821682838181FF2AC39E012F5F3F4F70
S1130F203901F7019381F10193FD859193FF81913B
S1130F301F01882309F417C3853239F493FD859181
S1130F4093FF81911F01853231F4B70190E039D4C8
S1130F5056016501E6CF10E0512C912CFFE1F91503
S1130F60D8F08B3279F038F4803279F08332A1F4FE
S1130F70F92DF0612EC08D3261F0803369F4292D92
S1130F8021602DC0392D3260932E892D8460982ED6
S1130F902AC0E92DE86015C097FC2DC020ED280F6C
S1130FA02A3088F496FE06C03AE0139F200D1124DF
S1130FB0122F19C08AE0589E200D1124522EE92DBB
S1130FC0E0629E2E10C08E3231F496FCCCC2F92D14
S1130FD0F0649F2E08C08C3621F4292D2068922EAF
S1130FE002C0883641F4F10193FD859193FF81910C
S1130FF01F018111B3CF9BEB980F933020F4992DEF
S11310009061805E07C09BE9980F933008F059C146
S1131010992D9F7E96FF16E09F73992E853619F4BD
S11310209064992E08C0863621F4392F3068932EA7
S113103002C01111115097FE07C01C3350F4442410
S11310404394410E27E00BC0183038F027E017E036
S113105005C027E09CE3492E02C0212F412C5601F4
S113106084E0A80EB11CF6016081718182819381B4
S1131070042DA301B8D26C01F981FC87F0FF02C0F2
S1131080F3FF06C091FC06C092FE06C000E205C054
S11310900DE203C00BE201C000E08C858C7019F0F6
S11310A0011143C280C297FE10C04C0CFC85F4FFB2
S11310B004C08A81813309F44A94141474F528E035
S11310C0241578F588E0482E2CC096FC2AC0812F80
S11310D090E08C159D059CF03CEFC3163FEFD306C2
S11310E074F0892D8068982E0AC0E2E0F0E0EC0FDD
S11310F0FD1FE10FF11D8081803319F4115011118E
S1131100F4CF97FE0EC044244394410E812F90E007
S1131110C816D9062CF41C1904C04424439401C0F5
S113112010E097FE06C01C141D0434F4C601019699
S113113005C085E090E002C081E090E001110196D5
S1131140112331F0212F30E02F5F3F4F820F931F87
S1131150252D30E08217930714F4581A01C0512C3E
S1131160892D897041F4552031F0B70180E290E077
S113117028D35A94F8CF002321F0B701802F90E0B0
S113118020D393FC08C0552031F0B70180E390E0F0
S113119018D35A94F8CF97FE4AC04601D7FE02C02E
S11311A0812C912CC60188199909F301E80FF91FC4
S11311B0FE87ED87960124193109388B2F87012F7B
S11311C010E01195019511093FEF8316930621F460
S11311D0B7018EE290E0F5D2C814D9044CF08F85A3
S11311E098898815990524F4ED85FE85818101C0CF
S11311F080E3F1E08F1A91082D853E852F5F3F4FE4
S11312003E872D878016910624F0B70190E0D9D24D
S1131210DBCFC814D90441F49A81963320F4953372
S113122019F43C8534FF81E3B70190E048C08A811A
S1131230813319F09C859F7E9C87B70190E0C1D2D1
S1131240111105C094FC16C085E690E015C0B701E5
S11312508EE290E0B6D21E5F82E001E0080FF30157
S1131260E80FF11D8081B70190E0ABD2802F01130C
S1131270F4CFE8CF85E490E0B701A3D2D7FC06C051
S1131280C114D10441F4EC85E4FF05C0D194C194A8
S1131290D1088DE201C08BE2B70190E092D280E3E5
S11312A02AE0C216D1042CF08F5FFAE0CF1AD108DD
S11312B0F7CFB70190E085D2B701C601C09681D2BD
S11312C049C1833631F0833779F0833509F052C050
S11312D01FC0560132E0A30EB11CF6018081898340
S11312E001E010E0630111C05601F2E0AF0EB11C41
S11312F0F601C080D18096FE03C0612F70E002C069
S11313006FEF7FEFC60152D28C01F92DFF7713C026
S1131310560122E0A20EB11CF601C080D18096FED7
S113132003C0612F70E002C06FEF7FEFC60133D2BC
S11313308C01F92DF0689F2EF3FD18C0852D90E0E7
S11313400817190798F4B70180E290E03AD25A944A
S1131350F5CFF60197FC859197FE81916F01B70156
S113136090E02FD251105A94015011090115110522
S113137081F7F0C0843611F0893659F5560197FE8D
S113138009C024E0A20EB11CF60160817181828142
S113139093810AC0F2E0AF0EB11CF6016081718145
S11313A0072E000C880B990BF92DFF769F2E97FFC3
S11313B009C090958095709561957F4F8F4F9F4F91
S11313C0F0689F2E2AE030E0A3017AD2C82EC61816
S11313D03EC0092D853721F40F7E2AE030E01DC080
S11313E0097F8F3691F018F4883559F0BCC08037E6
S11313F019F0883711F0B7C0006104FF09C0046018
S113140007C094FE08C0066006C028E030E005C0AE
S113141020E130E002C020E132E0560107FF09C0BC
S113142084E0A80EB11CF6016081718182819381F0
S113143008C0F2E0AF0EB11CF6016081718180E05A
S113144090E0A3013DD2C82EC6180F77902E96FEC9
S11314500BC0092D0E7FC11650F494FE0AC092FCF5
S113146008C0092D0E7E05C0DC2C092D03C0DC2C20
S113147001C0D12E04FF0DC0FE01EC0DF11D8081D1
S1131480803311F4097E09C002FF06C0D394D394BB
S113149004C0802F867809F0D39403FD10C000FFA8
S11314A006C01C2DD51478F4150D1D190CC0D514C7
S11314B050F4B70180E290E084D1D394F8CFD514EE
S11314C010F45D1801C0512C04FF0FC0B70180E374
S11314D090E077D102FF16C001FD03C088E790E0D9
S11314E002C088E590E0B7010CC0802F867851F0E7
S11314F001FF02C08BE201C080E207FD8DE2B7016B
S113150090E05FD1C11630F4B70180E390E059D187
S11315101150F8CFCA94F301EC0DF11D8081B7018D
S113152090E04FD1C110F6CF15C0F4E0F51550F599
S113153084E0581A93FE1EC0011125C02C8523FF98
S113154027C004EE10E0392D3071932EF8018491F8
S1131550811121C0552009F4FCCCB70180E290E050
S113156030D15A94F7CFF7018681978123C08FEF4A
S11315709FEF20C0B70180E290E023D15A9451102C
S1131580F9CFDACF512CB701802F90E01AD1D6CF02
S113159008EE10E0D8CF91108052B70190E011D13D
S11315A00F5F1F4FD3CF23E0251510F483E0C1CF85
S11315B0512CC4CF60960FB6F894DEBF0FBECDBFDA
S11315C0DF91CF911F910F91FF90EF90DF90CF901B
S11315D0BF90AF909F908F907F906F905F904F904F
S11315E03F902F900895283008F027E03327DA0140
S11315F0990F311D87FD916000966105710539F4DD
S113160032602E5F3D9330E32A95E1F708959F3FC2
S113161030F080387105610509F03C5F3C5F3D9313
S1131620913008F08068911DDF93CF931F930F933F
S1131630FF92EF92192F987F9695E92F969596959C
S1131640E90FFF27EA5BFE4F99273327EE24FF2497
S1131650A701E70105900894079428F4360FE71EC4
S1131660F81E491F511D660F771F881F991F069486
S1131670A1F70590079428F4E70EF81E491F561F9A
S1131680C11D770F881F991F661F0694A1F7059047
S1131690079428F4F80E491F561FC71FD11D880F41
S11316A0991F661F771F0694A1F70590079420F4ED
S11316B0490F561FC71FD81F990F661F771F881F12
S11316C00694A9F784911095177041F0D695C795A3
S11316D057954795F794E7941A95C1F7ECEEF0E027
S11316E068941590159135916591959105907FE2D7
S11316F07395E118F10A430B560BC90BD009C0F7D7
S1131700E10CF11E431F561FC91FD01D7EF4703318
S113171011F48A95E6CFE894015030F0080F0AF4EA
S11317200027021708F4202F2395022F7A3328F07C
S113173079E37D932A95E9F710C07D932A9589F67C
S1131740069497956795379517951794E118F10ABC
S1131750430B560BC90BD00998F023957E917395D2
S11317607A3308F070E37C932013B8F77E917061AC
S11317707D9330F0839571E37D9370E32A95E1F7CF
S11317801124EF90FF900F911F91CF91DF91992732
S113179087FD90950895FC010590615070400110FB
S11317A0D8F7809590958E0F9F1F0895FC01615086
S11317B0704001900110D8F7809590958E0F9F1F6F
S11317C008950F931F93CF93DF93FB01238121FD92
S11317D003C08FEF9FEF2CC022FF16C046815781B4
S11317E0248135814217530744F4A081B1819D01BE
S11317F02F5F3F4F318320838C93268137812F5F66
S11318003F4F3783268314C08B01EC01FB01008416
S1131810F185E02D1995892BE1F6D80116968D9165
S11318209C911797019617969C938E931697CE01C9
S1131830DF91CF911F910F910895CF93DF93CDB78F
S1131840DEB7AE014A5F5F4FFA0161917191AF015A
S11318508091CB029091CC023DDBDF91CF91089532
S11318600F931F93CF93DF93E091CB02F091CC02BF
S1131870238121FF1BC08C01D0E0C0E0F8018191DD
S11318808F016091CB027091CC02DB011896ED912F
S1131890FC911997882331F01995892B79F3DFEF9F
S11318A0CFEFECCF8AE01995892B19F08FEF9FEFDA
S11318B002C08D2F9C2FDF91CF911F910F9108951E
S11318C0FA01AA27283051F1203181F1E8946F936D
S11318D06E7F6E5F7F4F8F4F9F4FAF4FB1E03ED013
S11318E0B4E03CD0670F781F891F9A1FA11D680FB1
S11318F0791F8A1F911DA11D6A0F711D811D911DE4
S1131900A11D20D009F468943F912AE0269F112458
S11319103019305D3193DEF6CF010895462F4770BC
S1131920405D4193B3E00FD0C9F7F6CF462F4F7017
S1131930405D4A3318F0495D31FD4052419302D075
S1131940A9F7EACFB4E0A69597958795779567951B
S1131950BA95C9F700976105710508959B01AC011B
S11319600A2E06945795479537952795BA95C9F742
S1131970620F731F841F951FA01D0895F894FFCF55
S1131980C3F5483F7B142E3E0000803E000000015A
S1131990000000000000FE0500000000000200003E
S11319A00000EF050000000025642020200074756D
S11319B0726E20697320646F6E65210053746F70BA
S11319C07320617420666C61675F73746172742044
S11319D06C6F6F70007374617274206C6F6F702021
S11319E0006D656469616E3A202564200A0074758F
S10D19F0726E2072696768742000AB
S9030000FC
